:1000000019C04EC632C031C030C02FC02EC01AC277
:1000100048C276C2B2C153C181C1E5C1C3C0F1C0FB
:100020001FC123C0B0C321C0F7C31FC01EC01DC065
:100030001CC01BC011241FBECFEFD2E0DEBFCDBF5E
:1000400011E0A0E0B1E0E2E5FEE002C005900D9213
:10005000A831B107D9F721E0A8E1B1E001C01D92B4
:10006000AD39B207E1F712D0F2C6CACF811106C08E
:10007000662311F0429A089542980895813029F438
:10008000662311F0439A089543980895789410D503
:10009000539AEE24E39400E010E02EE730E040E0D5
:1000A00050E062E088E191E05AD260E070E088E1DF
:1000B00091E026D387B18C6087B988B18C6088B90C
:1000C00086E390E02BD655D4FECF4F925F926F928D
:1000D0007F928F929F92AF92BF92CF92DF92EF92D8
:1000E000FF920F931F93CF93DF9300D0CDB7DEB76E
:1000F0002B013C01842E922E132FA114B10429F45C
:10010000CE0101965C01C12CD12CF7011082811027
:1001100003C021E030E002C022E030E0F70180813E
:1001200091E0980F9083E92DF12FE80FF11DE80F72
:10013000F11D80819181289FD001299FB00D389FAA
:10014000B00D1124A301920149D69B01AC0160E0DE
:1001500072E18AE790E014D621503109F50131832C
:100160002083C216D30628F4F7019081901778F205
:1001700002C081E004C081E0091301C080E00F905B
:100180000F90DF91CF911F910F91FF90EF90DF9033
:10019000CF90BF90AF909F908F907F906F905F9027
:1001A0004F9008951F920F920FB60F9211242F9324
:1001B0003F934F935F936F937F938F939F93AF93EF
:1001C000BF93EF93FF93E0912201F09123013097C9
:1001D00039F00180F281E02D309711F080E009952F
:1001E000FF91EF91BF91AF919F918F917F916F910F
:1001F0005F914F913F912F910F900FBE0F901F90E5
:1002000018951F920F920FB60F9211242F933F93C0
:100210004F935F936F937F938F939F93AF93BF930E
:10022000EF93FF93E0912201F0912301309739F091
:100230000180F281E02D309711F081E00995FF9166
:10024000EF91BF91AF919F918F917F916F915F914E
:100250004F913F912F910F900FBE0F901F901895C7
:100260001F920F920FB60F9211242F933F934F932B
:100270005F936F937F938F939F93AF93BF93EF930E
:10028000FF93E0912201F0912301309739F0018032
:10029000F281E02D309711F082E00995FF91EF9106
:1002A000BF91AF919F918F917F916F915F914F918E
:1002B0003F912F910F900FBE0F901F9018951F9296
:1002C0000F920FB60F9211242F933F934F935F938A
:1002D0006F937F938F939F93AF93BF93EF93FF930E
:1002E000E0912001F0912101309739F00180F281F5
:1002F000E02D309711F080E00995FF91EF91BF91CB
:10030000AF919F918F917F916F915F914F913F91AD
:100310002F910F900FBE0F901F9018951F920F9264
:100320000FB60F9211242F933F934F935F936F93C8
:100330007F938F939F93AF93BF93EF93FF93E0913E
:100340002001F0912101309739F00180F281E02DF8
:10035000309711F081E00995FF91EF91BF91AF9136
:100360009F918F917F916F915F914F913F912F91CD
:100370000F900FBE0F901F9018951F920F920FB6FF
:100380000F9211242F933F934F935F936F937F931B
:100390008F939F93AF93BF93EF93FF93109285003A
:1003A00010928400E0912001F0912101309751F0EA
:1003B0000380F481E02D309729F0809186009091A0
:1003C00087000995FF91EF91BF91AF919F918F9118
:1003D0007F916F915F914F913F912F910F900FBE41
:1003E0000F901F9018951F920F920FB60F92112425
:1003F0002F933F934F935F936F937F938F939F932D
:10040000AF93BF93EF93FF93E0912001F09121010F
:10041000309739F00180F281E02D309711F082E0C1
:100420000995FF91EF91BF91AF919F918F917F912E
:100430006F915F914F913F912F910F900FBE0F9051
:100440001F9018951F920F920FB60F9211242F93A1
:100450003F934F935F936F937F938F939F93AF934C
:10046000BF93EF93FF93E0911E01F0911F0130972E
:1004700039F00180F281E02D309711F080E009958C
:10048000FF91EF91BF91AF919F918F917F916F916C
:100490005F914F913F912F910F900FBE0F901F9042
:1004A00018951F920F920FB60F9211242F933F931E
:1004B0004F935F936F937F938F939F93AF93BF936C
:1004C000EF93FF93E0911E01F0911F01309739F0F7
:1004D0000180F281E02D309711F081E00995FF91C4
:1004E000EF91BF91AF919F918F917F916F915F91AC
:1004F0004F913F912F910F900FBE0F901F90189525
:100500001F920F920FB60F9211242F933F934F9388
:100510005F936F937F938F939F93AF93BF93EF936B
:10052000FF93E0911E01F0911F01309739F0018097
:10053000F281E02D309711F082E00995FF91EF9163
:10054000BF91AF919F918F917F916F915F914F91EB
:100550003F912F910F900FBE0F901F9018958F9283
:100560009F92AF92BF92CF92DF92EF92FF920F9342
:100570001F93CF93DF9300D0CDB7DEB74C01E62FAA
:10058000CA01B90198011E2DD401EC9312963C9337
:100590002E931197EE2319F0E23089F162C07401B5
:1005A000B5E0EB0EF11C41E0111101C040E09E01ED
:1005B0002F5F3F4F5901CC24CA94D12C05E02EE087
:1005C00031E083DD882309F44CC029813A8121156B
:1005D000310529F491E090936E0090E004C027BDAE
:1005E00092E090936E0030E1139F70011124E92A8C
:1005F000E4BC15BC909223018092220133C07401A7
:10060000A5E0EA0EF11C41E0111101C040E09E019D
:100610002F5F3F4F5901CC24CA94D12C07E020E032
:1006200031E053DD8823E9F029813A812115310534
:1006300029F491E09093700090E005C02093B300FE
:1006400092E09093700030E1139F70011124E92A29
:10065000E092B0001092B10090921F0180921E01B2
:1006600001C080E00F900F90DF91CF911F910F910B
:10067000FF90EF90DF90CF90BF90AF909F908F90C2
:100680000895AF92BF92CF92DF92EF92FF920F93B5
:100690001F93CF93DF93FC01608312830183F48265
:1006A000E382613009F5CA01B901EF017F0125E05C
:1006B000E20EF11CA12CB12CC12CD12C05E02EE0B6
:1006C00031E040E002DD882381F091E290936F00F9
:1006D0001092800090E89093810010928200D09355
:1006E0002101C093200101C080E0DF91CF911F91D3
:1006F0000F91FF90EF90DF90CF90BF90AF90089553
:10070000FC018081813059F018F08230A1F0089509
:1007100066BD95B585818770892B85BD08957093D9
:100720008500609384009091810085818770892B7A
:100730008093810008956093B2009091B10085810B
:100740008770892B8093B1000895FC0180818130EE
:1007500051F018F0823079F0089585B5887F85BD15
:1007600087E085BB089580918100887F8093810018
:1007700087E286BB08958091B100887F8093B100A5
:1007800087E087BB08951F920F920FB60F92112436
:100790002F938F939F93AF93BF93EF93FF93E0912A
:1007A0002401F0912501309749F18091C00084FD2A
:1007B00025C08091C00082FD21C08091C00083FDD2
:1007C0001DC087858A30E0F4968581E0890F868791
:1007D000A181B2812C91DF01A90FB11D13962C9339
:1007E0008A3009F416869FB7F894E0912401F091BD
:1007F000250187858F5F87879FBF02C08091C600D4
:10080000FF91EF91BF91AF919F918F912F910F9099
:100810000FBE0F901F9018951F920F920FB60F9258
:1008200011248F939F93AF93BF93CF93DF93EF9355
:10083000FF93E0912401F09125013097E1F0848D40
:100840008823C9F0A181B281828D91E0980F928FA7
:10085000EF01C80FD11D88898C93828D8A3009F4ED
:10086000128E9FB7F894E0912401F0912501848DB8
:100870008150848F9FBFFF91EF91DF91CF91BF9106
:10088000AF919F918F910F900FBE0F901F90189571
:10089000CF93DF93EC0168831D861E861F861A8E18
:1008A0001B8E1C8E611124C01092C00088ED8093B5
:1008B000C10086E08093C20084E0220F331F441FF2
:1008C000551F8A95D1F760E072E18AE790E058D22F
:1008D000215031093093C5002093C40086EC90E08C
:1008E0009A838983D0932501C093240181E001C0BC
:1008F00080E0DF91CF910895FC01848D8A30E8F784
:10090000848D811107C08081811104C08091C00055
:1009100085FD13C0938D81E0890F838FDF01A90FBF
:10092000B11D50966C938A3009F4138E9FB7F894DA
:10093000848D8F5F848F9FBF08950180F281E02DA9
:1009400060830895FC0187858823E9F3858591E01C
:10095000980F9587DF01A80FB11D13968C919A30DF
:1009600009F415862FB7F8949785915097872FBF74
:100970000895EF92FF921F93CF93DF9380913501FB
:10098000882309F489C086E291E0DCDF909153016D
:10099000E92FF0E0E45BFE4F8083963018F491304D
:1009A00050F010C0963009F077C0ECE4F1E080E040
:1009B00096E09E0F0BC08A3A09F06EC081E08093EA
:1009C00053016AC09F5F9093530166C02191820FCB
:1009D0009E13FCCF9091520189135CC080914D0110
:1009E00080934401813289F048F4813009F052C08B
:1009F00061D1909346018093450135C0813AD1F091
:100A0000823A09F047C083D12EC080914E018B30CD
:100A100008F040C08093450159D190934B018093D9
:100A20004A01FC0120813181309348012093470124
:100A3000828117C080914E018B3060F58093450113
:100A4000609150017091510140914F0148D18091C6
:100A500050019091510190934801809347018091FA
:100A60004F018093460110924901C3E4D1E01C2F4D
:100A70001A5F7E01699186E291E03EDFF7016081B5
:100A800080914901680F609349011C13F2CF86E2FF
:100A900091E032DF10925301DF91CF911F91FF90CF
:100AA000EF900895882311F05C9808955C9A08955A
:100AB000549A80E0F7DF109253018AEA8093430151
:100AC00020E03BE440E050E060E086E291E0E0CEF0
:100AD000823021F410926B0110925401089583E743
:100AE00091E033DEE0917901F0917A0160E080914C
:100AF0009C010994EF920F931F93E0916C0124E005
:100B0000E29FF0011124E95AFE4FA0E0B0E080839B
:100B10009183A283B38380915401882309F478C020
:100B200080916C0110916801811360C04091570160
:100B3000509158016091590170915A0180915B0167
:100B400090915C01A0915D01B0915E01480F591F29
:100B50006A1F7B1F80915F0190916001A0916101EC
:100B6000B0916201480F591F6A1F7B1F809163017A
:100B700090916401A0916501B09166019A01AB0169
:100B8000280F391F4A1F5B1F68E478EE81E090E070
:100B9000F7D06CE3629FC001639F900D1124909386
:100BA00056018093550190916C0181E0911301C031
:100BB00080E080939C01E12C0FE615E028EC30E00A
:100BC00040E050E060E083E791E0C9DC8823A9F0D1
:100BD000E0917901F0917A0161E080919C010995A1
:100BE00060E070E083E791E08BDD07C090916C01DD
:100BF00080916A01981709F499CF80916C018F5FF9
:100C000080936C01843009F047C010926C0144C09D
:100C100080916C018F5F80936C018430E9F51092B4
:100C20006C0180916B018F5F823019F080936B01B2
:100C300033C010926B0180916801E7E5F1E090E02C
:100C40004EEF5FEF60E070E00191119121913191E1
:100C5000041715072607370718F4892FB901A801CB
:100C60009F5F943089F78093680190E09C012F5F2B
:100C70003F4F23703327209369019C012E5F3F4F24
:100C80002370332720936A010396837099278093FA
:100C9000670181E0809354011F910F91EF900895B7
:100CA0001F920F920FB60F9211240F900FBE0F904C
:100CB0001F90189580915401882329F08091550147
:100CC00090915601089580E090E0089590E09C0195
:100CD000220F331F820F931F85589E4F0895E82FD0
:100CE000F0E09F01220F331FE20FF31FE558FE4F84
:100CF00071836083428323E0829FC0011124BC0181
:100D00006050704043E050E085589E4F80C041E203
:100D100050E060E070E08BE791E06AC0EF92FF92F4
:100D20000F931F9390937A01809379018AB1806623
:100D30008AB98BB180668BB9EADF8AE7E82E85E055
:100D4000F82E08E615E028E438EE41E050E061E0D6
:100D50008DE691E096DC882329F060E070E08DE676
:100D600091E0CEDC82E08093690081E08DBB10923F
:100D70006C0110926B011F910F91FF90EF900895FD
:100D8000A1E21A2EAA1BBB1BFD010DC0AA1FBB1F8F
:100D9000EE1FFF1FA217B307E407F50720F0A21B01
:100DA000B30BE40BF50B661F771F881F991F1A946E
:100DB00069F760957095809590959B01AC01BD0198
:100DC000CF010895A29FB001B39FC001A39F01D09E
:100DD000B29F700D811D1124911D0895F3DFA59F11
:100DE000900DB49F900DA49F800D911D1124089526
:100DF000DC01862FE82FF999FECF12BC05C0E1BDBA
:100E0000F89AE39500B40D924150C8F70895DC01BB
:100E1000A40FB51F4150504038F0862F840F2E91FB
:100E200005D041505040D8F70895262FF999FECFAC
:100E300012BC81BDF89A815000B4021639F01FBA75
:100E400020BD0FB6F894FA9AF99A0FBE0895F89457
:020E5000FFCFD2
:100E520001000800200040008000000100040100A1
:080E620008004000000100043B
:00000001FF
